:020000040800F2
:10000000D8750020450100084D010008191C0008A2
:1000100051010008530100085501000800000000CC
:100020000000000000000000000000005701000870
:10003000590100080000000013310008511C00089D
:10004000651C0008671C0008691C00086B1C000880
:100050006D1C00086F1C0008711C0008731C000850
:10006000751C0008771C0008791C00087B1C000820
:100070007D1C00087F1C0008811C0008831C0008F0
:10008000851C0008871C0008891C00085F01000807
:100090005F0100085F0100085F010008931C000871
:1000A000951C0008971C0008991C00089B1C000860
:1000B0002B1C00082D1C00089D1C0008311C00088A
:1000C0009F1C0008A11C0008A31C0008A51C000818
:1000D000A71C0008231C0008A91C0008AB1C000872
:1000E0002F1C0008AD1C0008AF1C0008B11C000844
:1000F000B31C0008B51C0008B71C0008B91C000898
:10010000BB1C0008BD1C0008BF1C0008C11C000867
:10011000C31C0008C51C0008C71C0008C91C000837
:10012000CB1C0008CD1C0008CF1C0008D11C000807
:10013000DFF80CD006F0F6FD00480047EB1B000886
:10014000D87500200648804706480047FEE7FEE7CE
:10015000FEE7FEE7FEE7FEE7FEE7FEE7FEE7FEE777
:1001600047020008310100080CB500200190009002
:100170006A48006840F480306849086000BF6748FA
:10018000006800F4003000900198401C0190009835
:1001900018B90198B0F5A06FF1D16048006800F47B
:1001A000003010B10120009001E000200090009884
:1001B000012843D15A48006840F0100058490860AF
:1001C0000846006820F0030008600846006840F018
:1001D000020008605148406850494860084640683D
:1001E00048600846406840F48060486008464068BF
:1001F00020F47C1048600846406840F4E8104860ED
:100200000846006840F08070086000BF43480068FE
:1002100000F000700028F9D04048406820F003004A
:100220003E4948600846406840F00200486000BF10
:100230003A48406800F00C000828F9D10CBD10B510
:10024000FFF792FF10BD10B53448006840F0010080
:100250003249086008464068324908402F494860E2
:1002600008460068304908402C4908600846006884
:1002700020F4802008600846406820F4FE004860B2
:100280004FF41F008860FFF7DAFF10BD10B50021A2
:1002900000200022214B5B6803F00C0121B10429EE
:1002A00006D0082928D107E0204B214C236027E005
:1002B0001E4B1F4C236023E0184B5B6803F4701047
:1002C000164B5B6803F48032022303EB904022B9A3
:1002D000184B4343164C23600DE0104B5B6803F44E
:1002E000003323B1134B4343114C236003E00F4B06
:1002F00043430F4C236003E00C4B0D4C236000BFC5
:1003000000BF064B5B68C3F303130B4CE15C084B67
:100310001B68CB40064C236010BD0000001002405B
:10032000002002400000FFF8FFFFF6FE00127A00F6
:100330000000002000093D0004000020016821F0B9
:10034000010101600021016041608160C1608C4950
:10035000884208D18A490839496841F00F01884A22
:10036000083A51608AE086491431884208D18449AC
:100370000839496841F0F001814A083A51607DE04E
:100380007F492831884208D17D490839496841F4BC
:1003900070617B4A083A516070E079493C3188428B
:1003A00008D177490839496841F47041744A083ADC
:1003B000516063E072495031884208D17049083970
:1003C000496841F470216E4A083A516056E06C4920
:1003D0006431884208D16A490839496841F470019A
:1003E000674A083A516049E065497831884208D146
:1003F00063490839496841F07061614A083A5160BF
:100400003CE06049884206D1011F096841F00F01B4
:10041000021F116032E05B491431884208D159490A
:10042000091F096841F0F001564A121F116025E0CA
:1004300054492831884208D15249091F096841F4BA
:100440007061504A121F116018E04E493C318842D9
:1004500008D14C49091F096841F47041494A121FEB
:1004600011600BE047495031884207D14549091FC7
:10047000096841F47021434A121F1160704710B59A
:100480000022026847F6F0739A430C6A8B68234394
:100490000C6923434C6923438C692343CC69234370
:1004A0004C6A23438C6A23431A430260CB6843603F
:1004B0000B6883604B68C36010BD00210160416020
:1004C0008160C160016141618161C161016241621C
:1004D0008162704721B1026842F00102026003E0CC
:1004E000026822F00102026070471AB103680B43F0
:1004F000036002E003688B4303607047014648686D
:1005000080B2704701460020002201F080531BB1E9
:100510001C4B083B1A6802E0194B083B1A6802EAB8
:1005200001030BB1012000E00020704700F0805172
:1005300019B11449091F086002E0114908394860DF
:10054000704701460020002201F080531BB10D4B83
:10055000083B1A6802E00A4B083B1A6802EA0103EA
:100560000BB1012000E00020704700F0805119B16C
:100570000449091F086002E00149083948607047D2
:10058000080002400804024030B943F2DB02810057
:10059000A1F1C0410A6005E043F2D2028100A1F15D
:1005A000C0410A606FF07042411C8900A1F1C04156
:1005B0000A608100A1F1C041C1F8042170471028F0
:1005C0000AD118214FF020421166402151664FF0A8
:1005D000FC319166D16610E01821FA4A1160402181
:1005E0004FF02042C2F884104FF0FC31F54A083237
:1005F00011604FF02042C2F88C1070471820F1496A
:100600002031086000200906C1F8A4004FF0FC303A
:10061000EC4928310860091D0860091D0860704711
:10062000D0E901121143C2681143026911434269C2
:10063000114382691143C2691143026A1143426A3C
:100640001143826A1143C26A114302689200A2F107
:10065000C0421160816808290BD101688900A1F1AD
:10066000C041096841F0400201688900A1F1C04120
:100670000A60016B0968026B526841EA0211026B61
:10068000926841EA0221026B928941EA0241026BBF
:10069000128A41EA0251026B127D41EA0261026B49
:1006A000926911430268521C9200A2F1C04211608B
:1006B000816AB1F5804F1BD1416B0968426B52686A
:1006C00041EA0211426B926841EA0221426B128AAE
:1006D00041EA0251426B127D41EA0261426B92692A
:1006E000114302689200A2F1C042C2F8041107E06F
:1006F0006FF0704201688900A1F1C041C1F8042186
:10070000704730B5002100220023446844F00804FB
:1007100085682C43C5682C4305692C43456944EA28
:100720004524856944EA4531C4692468C5696D6812
:1007300044EA0524C5692D8944EA0544C5692D7B31
:1007400044EA0562046A2468056A6D6844EA05247F
:10075000056A2D8944EA0544056A2D7B44EA056350
:100760000468102C05D14FF020442166A266E36690
:1007700008E0944C21604FF02044C4F88820914C4C
:100780000C34236030BD016841F01001426841EA39
:100790004221826841EA42318A4A20321160C168AE
:1007A0000968C268526841EA0221C268128941EAB6
:1007B0000241C268127B41EA0261824A283211601A
:1007C000016909680269526841EA022102691289D5
:1007D00041EA02410269127B41EA0261794A2C3204
:1007E0001160416909684269526841EA022142691F
:1007F000128941EA02414269127B41EA02614FF0EB
:100800002042C2F8B010704700210160022141600F
:1008100000218160C160016141618161C1614FF46A
:10082000805101624900416200218162C1620F2151
:10083000026B1160026B5160FF21026B91600F210E
:10084000026BD160026B1161026B51610021026B7E
:1008500091610F21426B1160426B5160FF21426B2D
:1008600091600F21426BD160426B1161426B51610B
:100870000021426B916170471021016000214160AD
:100880008160C160016141618161FC21C2691160C7
:10089000C2695160C2699160C269D160026A116027
:1008A000026A5160026A9160026AD1607047002159
:1008B000016041608160FC21C2681160C2685160C2
:1008C000C2689160C268D1600269116002695160BA
:1008D000026991600269D1604269116042695160A8
:1008E000426991604269D160704751B18200A2F1C2
:1008F000C042126842F001038200A2F1C0421360BC
:1009000009E08200A2F1C04212682F4B1A40830016
:10091000A3F1C0431A60704799B1102808D14FF075
:100920002042126E42F004024FF020431A661DE08E
:10093000244A126842F004024FF02043C3F880209A
:1009400014E0102809D14FF02042126E1E4BDB1E1E
:100950001A404FF020431A6608E01A4A12681A4BF0
:10096000DB1E1A404FF02043C3F88020704748B187
:1009700014492031096841F004014FF02042C2F8C7
:10098000A01009E00F49203109680F4AD21E11401A
:100990004FF02042C2F8A0107047B9B1102808D11A
:1009A0004FF02042126E42F040024FF020431A6690
:1009B0001FE0044A126842F040024FF02043C3F89F
:1009C000802016E0800000A0FEFF0F00102808D154
:1009D0004FF02042126E6B4B1A404FF020431A66C4
:1009E00007E0694A1268674B1A404FF02043C3F88A
:1009F0008020704701460020102903D14FF020428B
:100A0000506F02E0604A14321068704710B5F2B1BE
:100A1000102807D14FF020435B6E0B434FF020446A
:100A2000636632E0B0F5807F08D1574B1B1D1B6811
:100A30000B434FF02044C4F8843026E0524B24335B
:100A40001B680B434FF02044C4F8A4301DE010286D
:100A500007D14FF020435B6E8B434FF02044636619
:100A600013E0B0F5807F08D1474B1B1D1B688B43FB
:100A70004FF02044C4F8843007E0434B24331B6814
:100A80008B434FF02044C4F8A43010BD10B502468B
:100A900000200023102A03D14FF02044636E09E0A8
:100AA000B2F5807F03D1384C241D236802E0364C18
:100AB0002434236803EA01040CB1012000E0002083
:100AC00010BD102807D14FF02042526E8A434FF0DC
:100AD00020435A6613E0B0F5807F08D12A4A121DE0
:100AE00012688A434FF02043C3F8842007E0264A67
:100AF000243212688A434FF02043C3F8A420704781
:100B000070B502460020002300240025102A03D1DE
:100B10004FF02046736E09E0B2F5807F03D11A4E84
:100B2000361D336802E0184E2436336803EA0104A8
:100B300003EAD10514B10DB1012000E0002070BD21
:100B4000102808D14FF02042526E22EAD1024FF015
:100B500020435A6615E0B0F5807F09D10A4A121D7C
:100B6000126822EAD1024FF02043C3F8842008E043
:100B7000054A2432126822EAD1024FF02043C3F81A
:100B8000A4207047BFFF0F00800000A010B50446EE
:100B9000CC48844208D10121042000F02DFB002123
:100BA000042000F029FB46E0C748844208D1012117
:100BB000082000F021FB0021082000F01DFB3AE096
:100BC000C248844208D10121102000F015FB002109
:100BD000102000F011FB2EE0BD48844208D1012115
:100BE000202000F009FB0021202000F005FB22E07E
:100BF000B848844208D10121402000F0FDFA0021CC
:100C0000402000F0F9FA16E0B348844208D10121EF
:100C1000802000F0F1FA0021802000F0EDFA0AE0D7
:100C2000AE48844207D10121801500F0E5FA002189
:100C3000A01500F0E1FA10BD10B50121084600F042
:100C4000DBFA0021012000F0D7FA10BD2DE9F041B8
:100C5000024600250026002000230024002791F8EA
:100C600003C00CF00F0591F803C00CF0100CBCF1A0
:100C7000000F03D091F802C04CEA050591F800C0BE
:100C8000BCF1000F31D0146800202BE04FF0010CB4
:100C90000CFA00F3B1F800C00CEA03069E4220D122
:100CA00083004FF00F0C0CFA03F7BC4305FA03FC6A
:100CB0004CEA040491F803C0BCF1280F06D14FF0B0
:100CC000010C0CFA00FCC2F814C00AE091F803C051
:100CD000BCF1480F05D14FF0010C0CFA00FCC2F832
:100CE00010C0401C0828D1D31460B1F800C0BCF17A
:100CF000FF0F34DD546800202EE000F1080C4FF0A7
:100D0000010808FA0CF3B1F800C00CEA03069E4291
:100D100021D183004FF00F0C0CFA03F7BC4305FA06
:100D200003FC4CEA040491F803C0BCF1280F05D180
:100D300000F1080C08FA0CF8C2F8148091F803C00E
:100D4000BCF1480F07D100F1080C4FF0010808FA78
:100D50000CF8C2F81080401C0828CED35460BDE8BF
:100D6000F0814FF6FF710180022181700421C17072
:100D700070470246002093680B400BB1012000E051
:100D8000002070470146886880B270470246002004
:100D9000D3680B400BB1012000E0002070470146F2
:100DA000C86880B2704701617047416170470AB1FD
:100DB000016100E041617047C16070474FF48032CB
:100DC0000A43826181618261826982697047024659
:100DD0000020434B18684FF68073184040EA021019
:100DE00008433F4B186070473E49C8617047F0B5F3
:100DF0000A46002300240021002500F00046B6F139
:100E0000004F02D1364EF16901E0354E7168C0F3F2
:100E1000034583B200F44016B6F5401F08D121F017
:100E200070612F4E766826F070662D4F7E6012E05E
:100E300000F48016B6F5801F06D1032606FA05F4E5
:100E4000A14341F0706106E0460D360103FA06F653
:100E5000B14341F0706122B1460D360103FA06F646
:100E6000314300F00046B6F1004F02D11C4EF16153
:100E700001E01B4E7160F0BD30B500228B071C0FE6
:100E80000F2303FA04F2164B08338C1053F8243066
:100E90009343134C08348D1044F8253023468C10AE
:100EA00053F824308C07240F00FA04F423430C4C2D
:100EB00008348D1044F8253030BD0A49DC31086013
:100EC0007047000000080140000C01400010014084
:100ED0000014014000180140001C014000200140A6
:100EE0000000014000002042DF48006840F001009F
:100EF000DD49086008464068DC490840DA49486036
:100F000008460068DA490840D74908600846006882
:100F100020F4802008600846406820F4FE00486005
:100F20004FF41F0088607047CF49096821F4803171
:100F3000CD4A11601146096821F480211160B0F595
:100F4000803F03D0B0F5802F0ED106E0C649096876
:100F500041F48031C44A116007E0C349096841F493
:100F6000A021C14A116000E000BF00BF704710B56A
:100F700001460022002300204A11012A02D1BA4C66
:100F8000236806E0022A02D1B74C236A01E0B64C7E
:100F9000636A01F01F02012494401C400CB101203F
:100FA00000E0002010BD38B500200090002400258E
:100FB00000BF3120FFF7DBFF05460098401C009082
:100FC0000098B0F5A06F01D0002DF2D03120FFF7CE
:100FD000CEFF08B1012400E00024204638BD0146C0
:100FE0000020A14A106820F0F80040EAC10010601B
:100FF0007047A04908607047024600209A4B586825
:1010000020F47C1042EA01031843974B5860704764
:1010100098490866704701460020934A506820F0BE
:1010200003000843506070478F48406800F00C0090
:101030007047014600208C4A506820F0F0000843B9
:101040005060704701460020874A506820F4E060F5
:1010500008435060704701460020834A506820F4DE
:10106000605040EAC1005060704729B17E4A527A10
:1010700002437D4B5A7204E07B4A527A82437A4B98
:101080005A7270477B49D83108607047014600208A
:10109000754A506820F44040084350607047002172
:1010A000714A20321170704A82F82010012802D053
:1010B00004280AD104E001216B4A2032117005E0B6
:1010C0000521694A2032117000E000BF00BF70475F
:1010D0006949086070476449096A0143624A1162BC
:1010E0007047654944390860704730B500210022D7
:1010F000002400235C4D6D6805F00C0121B104292A
:1011000005D0082923D105E05C4D056022E05B4D48
:1011100005601FE0544D6D6805F47012524D6D6806
:1011200005F48034022505EB92421CB9544D554319
:1011300005600BE04C4D6D6805F400351DB1504D58
:101140005543056002E04D4D5543056002E04B4DAF
:10115000056000BF00BF444D6D6805F0F00109094E
:10116000484D6B5C0568DD4045603F4D6D6805F49A
:10117000E061090A434D6B5C4568DD4085603A4D8E
:101180006D6805F46051C90A3E4D6B5C4568DD40F1
:10119000C560354D6D6805F44041890B3A4D6B5C77
:1011A000C568B5FBF3F5056130BD29B12E4A52691A
:1011B00002432D4B5A6104E02B4A526982432A4B69
:1011C0005A61704729B1284A92690243264B9A61B5
:1011D00004E0254A92698243234B9A61704729B102
:1011E000214AD2690243204BDA6104E01E4AD269E7
:1011F00082431D4BDA61704729B11B4AD268024312
:10120000194BDA6004E0184AD2688243164BDA6060
:10121000704729B1144A12690243134B1A6104E062
:10122000114A12698243104B1A61704712494039C2
:10123000086070470F49C86470470B49C871704710
:101240000948406A40F0807007494862704701468B
:101250000020054A92680A400AB1012000E00020FF
:101260007047014988727047001002400000FFF883
:10127000FFFFF6FE000042428004424200127A0064
:1012800000093D00140000202400002010B5044691
:10129000FB48844209D101218803FFF7ADFF0021FB
:1012A0004FF48040FFF7A8FF32E0F648844209D1AE
:1012B00001214804FFF7ADFF00214FF40030FFF794
:1012C000A8FF25E0F048844209D101218804FFF7F6
:1012D000A0FF00214FF48020FFF79BFF18E0EB48B0
:1012E000844209D10121C804FFF793FF00214FF484
:1012F0000020FFF78EFF0BE0E548844208D1012172
:101300000805FFF786FF00214FF48010FFF781FFEB
:1013100010BD2DE9F04786B005460E460024A246D2
:1013200000BFA1460027B08900B100BF2F462C8A1C
:101330004CF6FF700440F08804432C82AC894EF6D2
:10134000F3100440B088318908437189084304438D
:10135000AC81AC8A4FF6FF400440B0890443AC82B4
:1013600001A8FFF7C2FEC648874202D1DDF810A0EF
:1013700001E0DDF80CA0A88900F4004040B10AEBC0
:10138000CA0000EB0A1031684900B0FBF1F807E031
:101390000AEBCA0000EB0A1031688900B0FBF1F8D3
:1013A0006420B8FBF0F004012009642101FB1089DE
:1013B000A88900F4004040B1322000EBC900B0FB26
:1013C000F1F000F00700044308E0322000EB0910C0
:1013D0006421B0FBF1F000F00F0004432C8106B053
:1013E000BDE8F0874FF41651016000218180C18073
:1013F00001810C21418100218181704710B5024695
:101400000020108A4FF2FF0318400B884C882343BA
:101410008C882343CC8823431843108210BD0021BD
:10142000018041808180C180704721B1828942F46E
:101430000052828104E082894DF6FF731A40828156
:101440007047F0B50346002400260025002040F632
:101450006A17B94200D100BF1846C1F3421401F027
:101460001F06012707FA06F5012C01D10C3004E014
:10147000022C01D1103000E014301AB107682F435C
:10148000076002E00768AF430760F0BD1AB1838AC6
:101490000B43838202E0838A8B4383827047028AF4
:1014A0004FF6F0731A400282028A0A4302827047A2
:1014B00082894FF2FF731A40828182890A438281B6
:1014C000704721B1828942F00202828104E0828960
:1014D0004FF6FD731A4082817047028A4FF6DF7320
:1014E0001A400282028A0A430282704721B1028AAC
:1014F00042F48042028204E0028A4BF6FF731A40F3
:1015000002827047C1F308028280704701468888D2
:10151000C0F308007047818941F001018181704763
:10152000028BD2B20283028B42EA0122028370470D
:10153000028B02F47F420283028B0A4302837047CC
:1015400021B1828A42F02002828204E0828A4FF630
:10155000DF731A408282704721B1828A42F0100202
:10156000828204E0828A4FF6EF731A4082827047CB
:1015700021B1828A42F00802828204E0828A4FF618
:10158000F7731A408282704721B1828942F4004287
:10159000828103E08289C2F30E028281704721B109
:1015A000828A42F40062828204E0828A4FF2FF73F0
:1015B0001A4082827047828A4FF6FB731A408282F9
:1015C000828A0A438282704721B1828A42F00202F3
:1015D000828204E0828A4FF6FD731A40828270474D
:1015E00002460020B1F5007F00D100BF13880B40F8
:1015F0000BB1012000E00020704701F40072B2F549
:10160000007F00D100BFCA430280704770B5024618
:10161000002400230025002040F66A16B14200D1C4
:1016200000BFC1F3421501F01F03012606FA03F3C0
:10163000012D02D19689334006E0022D02D1168A8F
:10164000334001E0968A33400C12012606FA04F476
:101650001688344013B10CB1012000E0002070BDA9
:1016600010B50022002340F66A14A14200D100BF49
:101670000A1201249440A3B2DC43048010BD000090
:10168000003801400044004000480040004C004049
:101690000050004010B50446FA48844208D10121A8
:1016A0004015FFF7A9FD00216015FFF7A5FD17E024
:1016B000F548844208D101210015FFF79DFD002166
:1016C0002015FFF799FD0BE0F048844208D1012175
:1016D000C803FFF791FD00214FF40040FFF78CFD98
:1016E00010BD30B50246002000235068E84C204071
:1016F0000D790C6844EA0524204350609068E54C5D
:101700002040D1E902542C434D7944EA450420435A
:101710009060D06A20F470000C7C641EE4B2234315
:1017200040EA0350D06230BD002101600171417177
:101730008160C16001210174704721B1826842F06B
:101740000102826003E0826822F001028260704739
:1017500021B1826842F48072826003E0826822F4E0
:1017600080728260704710B50023CBB21AB1446812
:101770001C43446002E044689C43446010BD81689F
:1017800041F0080181607047014600208A6802F03C
:1017900008020AB1012000E000207047816841F092
:1017A000040181607047014600208A6802F004024B
:1017B0000AB1012000E00020704721B1826842F4A4
:1017C000A002826003E0826822F4A0028260704777
:1017D000014600208A6802F480020AB1012000E07C
:1017E0000020704710B50A4600210023416821F40B
:1017F0006041531E41EA4331416010BD21B142684E
:1018000042F40062426003E0426822F400624260F7
:101810007047F0B504460D4600200021092D11DD6A
:10182000E068A5F10A0606EB4607072606FA07F167
:101830008843A5F10A0606EB460603FA06F10843BB
:10184000E0600CE0206905EB4507072606FA07F182
:10185000884305EB450603FA06F108432061072A91
:101860000FDA606B561E06EB86071F2606FA07F195
:101870008843561E06EB860605FA06F108436063A8
:1018800022E00D2A0FDA206BD61F06EB86071F26F3
:1018900006FA07F18843D61F06EB860605FA06F11D
:1018A0000843206310E0E06AA2F10D0606EB86070C
:1018B0001F2606FA07F18843A2F10D0606EB8606FD
:1018C00005FA06F10843E062F0BD21B1826842F4F6
:1018D0008012826003E0826822F480128260704786
:1018E0000146C86C80B2704766484C30006870474B
:1018F00021B1426842F48062426003E0426822F40F
:1019000080624260704721B1426842F48052426076
:1019100003E0426822F48052426070470A46002188
:10192000816821F4E04111438160704721B18268F0
:1019300042F40042826003E0826822F40042826046
:10194000704721B1826842F40212826003E082682B
:1019500022F4021282607047014600208A6802F475
:1019600000120AB1012000E000207047F0B50446E3
:101970001546002000220026092911DDE068A1F1AA
:101980000A0707EB470C072707FA0CF29043A1F16F
:101990000A0707EB470703FA07F21043E0600CE081
:1019A000206901EB410C072707FA0CF2904301EB89
:1019B000410703FA07F210432061A06BC0F3015600
:1019C000EF1C06F1010CA7EB0C0707EB870C1F2798
:1019D00007FA0CF29043EF1C06F1010CA7EB0C0781
:1019E00007EB870701FA07F21043A063F0BD10B5BB
:1019F0000A4600210023816B21F44011531E41EA65
:101A00000351816310BD08B5002300930090009B33
:101A10000B440093009B1A6008BD08B502460020E5
:101A20000090009201F12800009B1844009000985B
:101A3000006880B208BD0A4600214168164B194073
:101A40001143416070474162826270470A4600213B
:101A5000416821F01F0111434160704740B10949BD
:101A60000831096841F40001064A0832116007E0B4
:101A700004490831096821F40001024A0832116062
:101A8000704700000024014000280140003C014054
:101A9000FFFEF0FFFDF7F1FFFFFD3FFF02460020D4
:101AA00013680B400BB1012000E000207047CA43CF
:101AB0000260704770B502460020002300240B121C
:101AC0005568CEB205EA060415681D4015B10CB183
:101AD000012000E0002070BD00220A12D343036001
:101AE0007047000031490143314A1160704770B5B9
:101AF000002100230F22C47804B32D4C246804F481
:101B0000E064C4F5E064210AC1F10403CA404478EA
:101B100004FA03F18478144021430901254C067826
:101B2000A155047804F01F050124AC4005786D111F
:101B3000AD0005F1E025C5F8004109E0047804F0A6
:101B40001F050124AC401C4D0678761145F826404F
:101B500070BD1A4A0A400243154B1B1F1A6070479A
:101B600039B1134A121D12680243114B1B1D1A6032
:101B700006E00F4A121D126882430D4B1B1D1A60AE
:101B80007047042808D14FF0E021096941F00401B1
:101B90004FF0E022116107E04FF0E021096921F0E8
:101BA00004014FF0E0221161704700000000FA05C7
:101BB0000CED00E000E400E080E100E080FFFF1FAA
:101BC00010B503F055FB03F099FC00F0B7FB00F0F3
:101BD00057FE04F027F800F07FFD01F0F5F900F062
:101BE000A5FE012004F04CFC10BD10B5FFF7E8FF86
:101BF00001F041FC012004F055FC0123044A0021BE
:101C0000044802F0EBFE01F05BFD002010BD000077
:101C1000C01000206166000802E02EA005F0A4F8C4
:101C2000FBE710B503F0EEFD10BD7047704770473D
:101C30007047704702E02CA005F096F8FBE700BF64
:101C4000FEE700BFFEE700BFFEE770477047704742
:101C500010B503F0C5FB01F024FC01F068FD01F0B4
:101C60003BFC10BD70477047704770477047704726
:101C700070477047704770477047704770477047AC
:101C8000704770477047704770477047704770479C
:101C9000704770477047704770477047704770478C
:101CA000704770477047704770477047704770477C
:101CB000704770477047704770477047704770476C
:101CC000704770477047704770477047704770475C
:101CD00070470000486172644661756C745F4861CA
:101CE0006E646C65720D0A00686172646661756C81
:101CF000740D0A006B48006800F10801694800682B
:101D00008088042801D0042070470020FCE7654843
:101D1000006800F10801634800688088042801D049
:101D2000042070470020FCE72DE9FC5F012400251A
:101D3000002600274FF000084FF000094FF0000A7E
:101D40004FF0000B00200190009056480068C088BA
:101D5000B0F5045F62D00CDCA0F500500D286FD206
:101D6000DFE800F0259A2E9A409A499A539A529A9F
:101D7000370042F20622811A904276D00ADCB0F592
:101D8000085F54D0A0F508500238002859D0022826
:101D900056D15FE0022972D0FA2979D0A1F51E410F
:101DA000CA39002978D100F041FA044675E03D486F
:101DB000006800F10805284600F0F2FD04466CE0DA
:101DC0003848006800F10805284600F002FE044685
:101DD00063E03448006800F10806304600F00DFE6C
:101DE00004465AE02F48006800F10807384600F022
:101DF0007CFE044651E02B48006800F1080840468C
:101E000000F061FF044648E047E02648006800F122
:101E10000809484601F013F804463EE021480068EE
:101E200000F1080A504600F0E0FA044635E01D488B
:101E3000006800F1080B584601F0E4F804462CE075
:101E40002AE01848006808300190019800F048FB2B
:101E5000044622E01348006808300190019800F021
:101E60007DFB044619E000E009E00E4800680830F8
:101E70000090009800F0CAFA04460EE008E0094815
:101E8000006808300090009800F0F6FA044604E07C
:101E900000F0F2FC044600E000BF00BF2046BDE8B1
:101EA000FC9F00002800002010B5002200212B48D4
:101EB00000880124C4EB600083B229480068808850
:101EC0000A30264C2488A04201D0FF2010BD06E035
:101ED000244830F81100104482B2481C81B2994263
:101EE000F6DB1F4800688088801E1D4C2468A08097
:101EF0001C4830F81300904201D08020E6E7002013
:101F0000E4E710B500210020174B1B88042404EBE4
:101F1000630244F24D53154C2380124B9B781B02F5
:101F2000104C648843EA1423104C63800E4B1B88CA
:101F30009B1CA38006E00D4B33F810300B4499B284
:101F4000431C98B29042F6DB084B23F81210064B64
:101F50001B880A33044C238010BD0000340000208D
:101F600028000020C410002036000020441100206A
:101F700010B501210420FFF725F901214802FFF7E0
:101F800021F901210846FFF710F910BD08B503201B
:101F9000ADF800008DF8020000208DF803006946BE
:101FA0009C48FEF753FE08BD00B585B09A48FFF780
:101FB00071FB0020009001208DF804008DF80500D1
:101FC0004FF4602002900020039002208DF8100052
:101FD00069469148FFF785FB0723012200218E48BF
:101FE000FFF717FC0723022201218B48FFF711FCA2
:101FF00001218948FFF7ACFB01218748FFF79DFBD2
:102000008548FFF7BCFB00BF8348FFF7BDFB0028F6
:10201000FAD18148FFF7C2FB00BF7F48FFF7C3FB3F
:102020000028FAD105B000BD00B58BB07B48FEF7A3
:1020300085F979484C300090794801900020029051
:10204000022003900020049080200590400006901C
:1020500080000790202008900002099000200A903C
:1020600069466E48FEF70BFA0BB000BD10B50121B2
:102070006948FFF7A2FB01216848FEF72BFA10BD63
:1020800010B510220021674800F04BF9FFF770FFF0
:10209000FFF77CFFFFF788FFFFF7C6FFFFF7E6FFBC
:1020A00010BD60480088C0F30E0000B970475D485D
:1020B0000088C0F30E00012804D0022803D00328B2
:1020C00003D101E002E001E000E000BF00BF00BF7B
:1020D000ECE72DE9F04107460D460026052F56D0C6
:1020E00006DC052F1BD2DFE807F00E1B2836440064
:1020F000062F5AD0072F66D0B7F5807F72D0B7F57C
:10210000817F0CD17BE02026002406E0464830F891
:10211000240025F81400601C84B2202CF6DB75E046
:102120002026202406E0404830F8240025F814003A
:10213000601C84B2402CF6DB68E02026002407E017
:10214000394800EB8400408825F81400601C84B2F4
:10215000202CF5DB5AE02026202407E0324800EB53
:102160008400408825F81400601C84B2402CF5DB04
:102170004CE02026002407E02B4800EB84008088F8
:1021800025F81400601C84B2202CF5DB3EE02026EC
:10219000202407E0244800EB8400808825F8140000
:1021A000601C84B2402CF5DB30E02026002407E0E0
:1021B0001D4800EB8400C08825F81400601C84B220
:1021C000202CF5DB22E02026202407E0164800EB37
:1021D0008400C08825F81400601C84B2402CF5DB14
:1021E00014E0FFE70426002406E00D4830F8140050
:1021F00025F81400601C84B2042CF6DB06E00826E7
:1022000032460849284600F07DF800BF00BF30463E
:10221000BDE8F081000801400024014008000240B0
:102220003A000020C4120020C411002070B53148CB
:10223000006800F108043048006800F10806002535
:102240002E480088042801D0042070BD208843F265
:102250000402811A904222D008DC70B1B0F5405FD0
:1022600011D0A0F54050023888BB12E002291CD0E2
:10227000042920D006292BD123E06088314600F0C4
:102280007FF8054625E06088314600F0A3FE85B260
:102290001FE06088314603F02AFD054619E060889A
:1022A000314603F01DFD054613E06088314603F01A
:1022B0007FFE05460DE06088314603F00DFF0546C0
:1022C00007E06088314603F0DFFD054601E0FFE7E7
:1022D00000BF00BF0DB9F020B7E74CF2D1000649AE
:1022E0000968C8804FF6FF7000EA4500044908807D
:1022F0000020AAE7280000202C000020B2000020C7
:102300003600002070B503461C460D46002005E04F
:1023100035F8106024F81060461CB0B29042F7DB2C
:1023200070BD30B503461C46002003E024F81010B1
:10233000451CA8B29042F9DB30BD000010B5082260
:1023400000211D48FFF7EDFF10BD70B505461024B4
:1023500022461A492846FFF7D5FF204670BD0146A0
:102360000A460020108050800420704770B5054652
:102370000224224612492846FFF7C4FF204670BDBA
:1023800070B504460D46002624B1042C07D0082C55
:102390000FD109E02846FFF7E2FF064609E028468C
:1023A000FFF7D3FF064604E02846FFF7DFFF0646A7
:1023B00000BF00BF304670BD48000020B86D000867
:1023C0005000002008B501210802FEF7FBFE102096
:1023D000ADF8000003208DF8020010208DF80300F6
:1023E00069460948FEF732FC08BD10B5044620884E
:1023F00020B910210448FEF7D6FC03E01021024862
:10240000FEF7D3FC002010BD0020014070B505464A
:102410000024288830B101280BD0022810D00328CE
:102420001CD114E0A948008840F00100A7490880A9
:1024300015E0A648008840F00200A44908800EE09C
:10244000A248008840F00400A049088007E09F48A7
:10245000008840F008009D49088000E000BF00BFF0
:10246000288820809948008860806888A08020465D
:1024700003F0B5FD002070BD70B505460024288826
:1024800030B101280BD0022810D003281CD114E051
:102490008E48008820F001008C49088015E08B48A8
:1024A000008820F00200894908800EE087480088F3
:1024B00020F004008549088007E08448008820F067
:1024C00008008249088000E000BF00BF2888208003
:1024D0007E4800886080204603F081FD002070BDAA
:1024E00020B50546288830B101280BD0022810D02D
:1024F00003281CD114E07648008840F0010074499C
:10250000088015E07248008840F002007049088099
:102510000EE06F48008840F004006D49088007E035
:102520006B48008840F008006949088000E000BF5F
:1025300000BF6748008860806548008860816888BF
:10254000A080A888E080E8882081288820802889C9
:10255000A081204603F066FD002020BD20B5054681
:10256000288830B101280BD0022810D003281CD1B4
:1025700014E05748008820F001005549088015E014
:102580005348008820F00200514908800EE050486E
:10259000008820F004004E49088007E04C4800887D
:1025A00020F008004A49088000E000BF00BF48480A
:1025B0000088608046480088608128882080204606
:1025C00003F030FD002020BD86B07DE04149096860
:1025D000888A00F083FC002301221946184602F085
:1025E00077FD3C480068017DBDF8040061F30700F9
:1025F000ADF804000120ADF8060036480068008BF5
:10260000ADF80A0033480068008C80B2ADF80800CD
:1026100030480068008D80B2ADF80C0001A800F0D1
:1026200052FB002301221946184602F051FD2948A9
:10263000006800F0B5F927480068408A012805D1F4
:1026400024480068001DFFF7E1FE09E0214800680A
:10265000408A022804D11F4800680830FFF740FF75
:10266000002301221946184602F032FD0020ADF881
:10267000000018480068808BADF80200684600F042
:10268000C1FC002301221946184602F021FD114821
:102690000068017DBDF8100061F30700ADF810007F
:1026A0000120ADF812000B480068408BADF8160011
:1026B00008480068808C80B2ADF8140004A800F0CF
:1026C00014FA052002F00AFC80E700005A000020FE
:1026D000580000205400002010B503F00EFD10BD7E
:1026E00070B50446002562B600BF03F036FDA02099
:1026F00003F069FD03F0FFFD0028F6D1E0B203F01E
:1027000062FD03F0F8FD03F028FDA12003F05BFD5E
:1027100003F0F1FD002003F0B8FD054603F038FD9D
:1027200072B6284670BD70B504460D4662B600BF4D
:1027300003F013FDA02003F046FD03F0DCFD0028AC
:10274000F6D1E0B203F03FFD03F0D5FD284603F0DB
:102750003AFD03F0D0FD03F01BFD72B670BD2DE90C
:10276000F0470746884615460026B146B246B5F5FD
:10277000007F01DDBDE8F08700241CE04FF0000978
:10278000002612E038467A1C97B2FFF7A9FF82466E
:10279000F0000AFA00F040EA09090A230022114673
:1027A000104602F095FC701C86B2042EEAD348F85D
:1027B0002490601C84B2AC42E0DB00BFDAE72DE974
:1027C000F04707468846144600250026A946AA4633
:1027D000B4F5007F01DDBDE8F08700251AE058F868
:1027E0002590002612E0F00029FA00F000F0FF0A20
:1027F00038467A1C97B25146FFF795FF0A2300220C
:102800001146104602F064FC701C86B2042EEAD316
:10281000681C85B2A542E2DB00BFDCE770B5044668
:102820000D46102604F11000C11700EB11610912CA
:10283000A0EB0121102900DA70BD00BF03F08DFC70
:10284000A02003F0C0FC03F056FD0028F6D1E0B252
:1028500003F0B9FC03F04FFD05E015F8010B03F0A0
:10286000B2FC03F048FD301EA6F10101CEB2F4D156
:1028700003F08EFC00BFDFE70020704770470000C8
:1028800008B501212020FEF79DFC4FF46050ADF803
:10289000000003208DF8020010208DF80300694627
:1028A0002148FEF7D3F94FF400611F48FEF77BFA89
:1028B0004FF480511C48FEF776FA4FF400511A4845
:1028C000FEF771FA08BD70B505460C466DB92CB916
:1028D0004FF400611448FEF768FA23E0012C21D17F
:1028E000E1021148FEF75FFA1CE0012D0CD124B97A
:1028F00029030D48FEF759FA14E0012C12D12103E7
:102900000948FEF750FA0DE0022D0BD124B9290336
:102910000548FEF74AFA05E0012C03D1610302489D
:10292000FEF741FA70BD0000001401400020FE498E
:1029300008804FF0C041A1F842000420FA49891CE8
:10294000088000200880F84960310880891C0880D0
:102950000420088000200880F349C0310880891CC9
:1029600008800420088000200880F0490880891C25
:102970000880042008800020088010204FF0C0410B
:10298000C8860020088748878887C887704701461F
:102990000846C0EB003041F27072B0FBF2F07047B5
:1029A00070B5054600260024E148006880880428A8
:1029B00001D0042070BD6888FFF7E9FF064628882B
:1029C000608000202080A680204603F097F9002038
:1029D000F0E770B505460024D548006880880428D3
:1029E00001D0042070BD2888608000202080A08055
:1029F000204603F083F90020F4E70146088818B167
:102A0000F320C94A108002E00020C74A108048889D
:102A100020B1F320C44A6032108003E00020C24A93
:102A200060321080888820B1F320C04A603A10805C
:102A300003E00020BD4A603A1080C88818B1F32036
:102A4000BA4A108002E00020B84A10800020704787
:102A50002DE9F0410446B74E2746B749384603F002
:102A6000AFFE07463146384603F0AAFE0746384611
:102A700004F060F805462846BDE8F0812DE9F047EE
:102A800004464FF08F41204603F09AFE81464846A7
:102A900004F064F807460022A84B03F0A8FF05469F
:102AA00004F06FF88146A449484603F089FE814648
:102AB000484604F053F807460022A04B03F097FF66
:102AC000054604F05EF881464FF09C41484603F00D
:102AD00077FE81464FF08041484603F071FE814603
:102AE000484604F027F8BDE8F0872DE9F04186B0AC
:102AF0000446002600250027E08803F0F0FF80460A
:102B0000FFF7BCFF0646A08803F0E9FF8046FFF709
:102B10009FFF05460020ADF80200ADF80400ADF8B7
:102B20000E00ADF80C00ADF81200ADF81000ADF8D5
:102B30001600ADF814002078ADF80000BDF80200D2
:102B400020F00800ADF80200684603F004F9BDF873
:102B5000020040F00100ADF80200BDF8020040F0B4
:102B60000200ADF802006088012806D1BDF802001D
:102B700040F00400ADF8020008E06088022805D1AA
:102B8000BDF8020020F00400ADF80200BDF802001C
:102B900040F00800ADF80200BDF8020020F010007F
:102BA000ADF80200BDF8020020F02000ADF80200F0
:102BB000BDF8020040F04000ADF80200BDF8020090
:102BC00020F08000ADF80200B0B2ADF80600A8B267
:102BD000ADF80800C5F30740ADF80A00684603F0F9
:102BE000BAF8002006B0BDE8F0812DE9F0410446B6
:102BF0000D46200403F073FF0646284603F06FFFDE
:102C000007463946304603F00DFE06464FF09C411C
:102C1000304603F007FE0646204603F060FF0746F5
:102C2000314603F0CDFD06464FF08041304603F0BB
:102C3000F9FD06464FF08041304603F0C1FD0646DF
:102C4000304603F077FFBDE8F0812DE9F04780467C
:102C5000894614461F46089D49464046FFF7C5FF72
:102C60000646012F0ED1601BB6EB500F08D3601B38
:102C7000012802D12046BDE8F08760194008FAE734
:102C8000A01BF8E7281BB6EB500F02D32819400809
:102C9000F1E7A019EFE72DE9F0410446204603F0E3
:102CA0005DFF0546264A274B03F0FAFD074603F071
:102CB00068FF04462049204603F082FD054603F0E4
:102CC00020FFBDE8F0812DE9F04F8BB004464FF0B6
:102CD0000008002700250026AB46A946AA46207812
:102CE00001A903F0D1F8BDF80660BDF808004FF463
:102CF0007F0101EA00400644E08803F0F0FE009006
:102D0000FFF7BCFE8046A08803F0E9FE0090FFF7C5
:102D10009FFE0746208903F0E2FE0090FFF7BBFF0D
:102D200005464FF07E500FE04000006060010060FB
:102D30002800002095BF564200007A44D01263411B
:102D40008DEDB5A0F7C6B03EFFF782FE8246207833
:102D5000ADF81400BDF8160020F00800ADF816001C
:102D600005A802F0F8FFBDF8160040F00100ADF82C
:102D70001600BDF8160040F00200ADF8160060889D
:102D8000012808D1BDF8160040F00400ADF8160087
:102D900005EB060B0AE06088022807D1BDF8160093
:102DA00020F00400ADF81600A6EB050BBDF81600E8
:102DB00040F00800ADF81600BDF8160040F0100015
:102DC000ADF81600BDF8160040F02000ADF8160072
:102DD000BDF8160040F04000ADF81600009663887C
:102DE0005A4641463846FFF730FF81461FFA88F0C1
:102DF000ADF81A001FFA8AF0ADF82000CAF30740B8
:102E0000ADF82200B8B2ADF81C00C7F30740ADF82A
:102E10001E001FFA89F0ADF82400C9F30540ADF893
:102E20002600A8B2ADF82800C5F30540ADF82A0089
:102E300005A802F090FF00200BB0BDE8F08F10B5A0
:102E400086B004462088ADF80000608888B9BDF8D7
:102E5000020020F01000ADF80200BDF8020020F0E2
:102E60002000ADF802000020ADF80800ADF80A001F
:102E70002EE0608801282BD1BDF8040020F0080066
:102E8000ADF80400684602F066FFBDF8040040F0AB
:102E90000800ADF80400BDF8020040F00100ADF8F4
:102EA0000200BDF8020040F00200ADF80200BDF8DB
:102EB000020020F01000ADF80200BDF8020020F082
:102EC0002000ADF802000020ADF80800ADF80A00BF
:102ED000684602F040FF002006B010BDFEB5044673
:102EE00000250026042C01DB0120FEBD0120A040AE
:102EF00085B24FF0C04040882840A84221D1BDF89B
:102F0000000064F30700ADF800000120ADF80200F6
:102F1000BDF80000C0B2ADF800000120ADF8060019
:102F20000320ADF804006846FFF7DFFD032002F040
:102F30005DFAADF808400120ADF80A0002A8FFF7DD
:102F40007EFF0220ADF802000120ADF804006846C3
:102F5000FFF7CBFD0BE03046711C8EB23C2803DD41
:102F6000022003F09FFA08E0012002F03FFA4FF040
:102F7000C04040882840A842EDD100BF02A8FFF71A
:102F80005EFF00BFB1E770B50446204603F09EFD2A
:102F900005460C49284603F045FC70BD002410E0AE
:102FA000002409E0A0B2FFF799FF0023012219468F
:102FB000184602F08DF8641C042CF3DB042001F0A9
:102FC0008DFFEDE700007A4410B5FFF759F803F0E4
:102FD000B5F910BD02460B4601213AB93848408880
:102FE000414301EB4100C100090B08E0012A06D171
:102FF00033480088414301EB4100C100090B1980AF
:10300000012070472DE9F84F04464FF00009CB46E8
:10301000CA46002000902088B8B969460120FFF711
:10302000D9FF6188BDF80020881A03F04FFD824661
:10303000504603F093FD07460022224B03F0D7FCD5
:10304000054603F09EFD824615E069460120FFF724
:10305000C1FFBDF8000003F047FD05460022194BF3
:1030600003F0C5FC074603F08CFD82461649504626
:1030700003F0A6FB8246BDF8000003F030FD834656
:103080004FF0000913E05146584603F041FB8346D8
:103090000E49584603F094FB064603F04BFD0546E7
:1030A00003F08BF9642002F0BEF909F10109B9F1CE
:1030B0000A0FE8DB207803F0E3F90020BDE8F88F81
:1030C0003A00002000002440000080BF00007A4445
:1030D000EFF3108072B6704780F3108870471D4878
:1030E0004FF0FF010170002080F309881A48012188
:1030F00001701A484FF08051016062B6FEE7174830
:103100004FF080510160704714484FF080510160CA
:10311000704772B6EFF3098028B1203880E8F00FCD
:103120000F490968086000B50E4880475DF804EB58
:103130000D480E490A78027009480D490A68026074
:10314000106890E8F00F203080F309884EF0040EEC
:1031500062B6704722ED00E08200002004ED00E03E
:10316000880000201D320008770000207800002031
:103170009000002070477047704770477047704755
:10318000704770B5044610464FF080750560051F06
:1031900028462C606FF00106051F28462E604FF070
:1031A0001236051F28462E604FF00336051F2846AD
:1031B0002E604FF00236051F28462E607610051F40
:1031C00028462E60051F284629604FF01136051F3E
:1031D00028462E604FF01036051F28462E604FF00F
:1031E0000936051F28462E604FF00836051F284671
:1031F0002E604FF00736051F28462E604FF006362A
:10320000051F28462E604FF00536051F28462E6004
:103210004FF00436051F28462E6070BD704770477A
:10322000704700007CB5002514E06946284601F08F
:1032300013FE064666B9F74850F8254044B1012C04
:1032400006D0D4E9020100EB810060640198A0641B
:10325000681CC5B23F2DE8D97CBD002400BF02E048
:10326000C82001F003FFEC4800780028F8D0EB48B4
:1032700000686421B0FBF1F0E84908600846006886
:1032800028B90020E6490870FF2001F027FE00BFA2
:10329000FFF71EFF0446E3480068E349086000208A
:1032A000E04908602046FFF717FFDF480068DB4968
:1032B0000968B0FBF1F0C0F16400D9490870FFF76C
:1032C0005FFFFFF7AFFF642001F0D0FEE0E700B53D
:1032D00087B0032000218022D44BCDE90132CDE913
:1032E00003104FF6FE703E23D14A0090AFF29500D6
:1032F00001F0CBFB06AACFA13E2001F02FFD07B0C5
:1033000000BD002400BF00BFFFF7E2FE0446C54831
:103310000068401CC34908602046FFF7DDFEFFF748
:103320002EFFF1E700B587B0032000218022C54BB6
:10333000CDE90132CDE903104FF6FF703F23C24AB9
:103340000090AFF2410001F0A0FB06AABFA13F2010
:1033500001F004FD07B000BD04E0002200F8012BDD
:103360004A1E91B20029F8D1704770B5C821BB48F8
:10337000FFF7F2FF00230FE0581C85B203EB830038
:10338000B64901EB800405EB850001EB80060020C7
:1033900020706660581C83B2092BEDD303EB8300C9
:1033A000AE4901EB80040020207060600846AC4903
:1033B000086070BD70B54FF4E761AA48FFF7CCFF15
:1033C0004FF480719348FFF7C7FF002413E0601C9F
:1033D000C5B2C4EBC40000EB4000A24901EB80037E
:1033E000C5EBC50000EB400001EB80065E619EA0CE
:1033F000D864601CC4B2152CE9D3C4EBC40000EB44
:103400004000984901EB80030020586196A0D864E1
:1034100000209649086093489549086070BD0021D6
:10342000944A1170002004E00021934A1154411C79
:10343000C8B20828F8D30021904A1170904A117040
:10344000904A1160904A1160704700208F490860CF
:103450008F4908708F4908708F4908708F4908702C
:103460008F4908606F4908606F4908606B490860C0
:1034700069490870704710B5FFF77CFEFFF7E5FF5C
:10348000FFF7CDFFFFF796FFFFF76FFF00F0EAFEB3
:1034900001F0E1F9FFF746FFFFF719FFFFF76CFEB8
:1034A00010BD7E480078012808D179480078FF28AF
:1034B00004D277480078401C7549087070477949F4
:1034C0006C4A1278885C6C49095C764A515C01EB65
:1034D000C0016B4A1170704710B500246F48007826
:1034E000012830D1FFF7F4FD04466948007820B187
:1034F00067480078401E6649087065480078F8B94A
:1035000064480078E0B9FFF7DAFF42485C4909787F
:1035100050F821005B4908605948007857490978FC
:1035200088420DD057480068806B401C5549096897
:1035300088635B480068401C59490860FFF7E4FD58
:103540002046FFF7C9FD10BD10B500245348007890
:10355000012811D1FFF7BCFD04464D48007840B961
:103560004C480078FF2804D24A480078401C49495A
:1035700008702046FFF7B0FD10BD10B50024FFF71E
:10358000A7FD044642480078F8B942480078E0B9FF
:10359000FFF795FF1F483A49097850F8210039494B
:1035A0000860374800783549097888420DD0354899
:1035B0000068806B401C334909688863384800689C
:1035C000401C37490860FFF79AFD2046FFF784FD4D
:1035D00010BD10B500243148007801286FD1FFF7E5
:1035E00077FD04462B48007880B12A480078401EB9
:1035F000284908700846007848B92548007838B945
:103600002046FFF769FDFFF7B8FF58E054E04FE0B0
:103610004AE00000EC170020740000206C0000203D
:10362000680000208400002070000020EC130020BF
:10363000E815002075432F4F532D494920537461DD
:1036400074000000EC150020E817002075432F4F90
:10365000532D49492049646C65000000D4120020B4
:1036600060000020EC1800203F00000094000020C3
:103670008C000020790000207A00002077000020D4
:10368000780000209000002088000020A00000208A
:1036900075000020760000208300002082000020BA
:1036A0005C000020D86D00082046FFF715FD06E0FD
:1036B0002046FFF711FD02E02046FFF70DFD10BD8B
:1036C00010B5EB48007890B9FFF7F9FEE9480078AB
:1036D000E9490870E948E749097850F82100E849C4
:1036E000086008460068E7490860FFF7F8FC10BD6D
:1036F00010B50024022001F0B9FCFFF7E9FC0446F4
:103700000020E14908602046FFF7E6FC642001F054
:10371000ADFCFFF7DDFC0446DB480068DB490860D0
:103720000120DB4908702046FFF7D6FC10BD70B5BC
:103730000026FFF775FDFFF7CBFC0646D54800686D
:10374000401CD44908603046FFF7C6FCC8480078E2
:10375000012853D1D048007820B1012804D0022894
:1037600009D103E001250BE0002509E00125012036
:10377000C949087004E001250020C749087000BF4E
:1037800000BF05B970BDC548046833E0FFF7A0FC71
:103790000646E06A50B3E06A401EE062E06A28BB79
:1037A00094F8300000F0370040B114F8300F00F00A
:1037B000C800207001206070303C02E0002084F8D6
:1037C000310094F8300000F0080078B93434A07863
:1037D000B34909780843B24908702078B149085CB8
:1037E0006178084314F83419AE4A5054646930467D
:1037F000FFF772FC94F832003F28C7D100BFC1E741
:1038000040F223107047704710B590F8342001F152
:103810000B039B5C90F83540A34301F10B04A354C8
:1038200023469B5C23B98B7A90F83640A3438B7276
:1038300010BD2DE9F04F05460F4690469946A87AEF
:1038400099490E5C05F10B00805D11F800B00BEB9F
:10385000C60000F0FF0A894850F82A4000202034B2
:10386000E0602760207C20EA0800207484F8119032
:10387000207C203C00F0080068B994F836008849A4
:1038800009780843864908708648805D94F83510A9
:1038900008438449885529462046FFF7B5FF50461E
:1038A000BDE8F08F10B5774A1268D061754A12688A
:1038B00092F8343000F10B02D25C724B1B6893F823
:1038C00035301A436F4B1B6893F8344000F10B03FB
:1038D0001A55827A6B4B1B6893F836301A43827202
:1038E000684A126892F834106E4A525C654B1B6845
:1038F00093F835309A436B4B5A541A46525C42B98E
:10390000604A126892F83630654A12789A43644BDE
:103910001A7010BD014600228A72002005E00023C3
:1039200001F10B021354421CD0B20828F7D37047A0
:1039300005E011F8013B00F8013B531E9AB2002A42
:10394000F7D170470146002002E0491C421CD0B26A
:103950000A78002AF9D170472DE9F84F05460F463D
:1039600090469946DDE90AAB00200090FFF7B0FBD6
:1039700000904E480468002C75D0183454F8040C9C
:103980004A4908600098FFF7A7FB44F8187CA57621
:10399000002020766076606144F814BC44F80CACDA
:1039A00044F8108C0C9824F8080C24F8069C00208D
:1039B000E077E810207705F00700E076217F01200E
:1039C0008840A077E17E0120884060770020606019
:1039D000E060A0602062A0626062E0622063AFF2FB
:1039E00078306063183C002606E0002104F15000A6
:1039F00040F82610701CC6B2002EF6D02046FFF705
:103A00000EFC2046FFF7B9FBFFF762FB00901B4856
:103A100040F825402148006860610020A0611F48EF
:103A2000006810B11D48006884611C48046034348B
:103A3000A0781B490978084319490870207819496A
:103A4000085C6178084314F83419164A5054184831
:103A50000078401C164908700098FFF73DFB0020D5
:103A6000BDE8F88FFFE70098FFF736FB4220F7E745
:103A7000820000207800002077000020EC17002052
:103A80009000002088000020840000206C000020AE
:103A900074000020A0000020980000209400002066
:103AA000790000207A000020D86D00088C000020EA
:103AB000830000202DE9F05F04460F4691461E4624
:103AC0004FF0000B2078052804D001203070002032
:103AD000BDE8F09F09F0800ABAF1000F04D029F088
:103AE00080094FF0010801E04FF00008002030701D
:103AF000FFF7EEFA8346B9F1000F2CD0B9F1010FB0
:103B00003BD0B9F1020F03D0B9F1030F46D111E058
:103B1000208900EA0705BD4206D1B8F1010F05D1A1
:103B20002089A843208101E0702030705846FFF7BB
:103B3000D3FA3AE0208900EA070535B1B8F1010F60
:103B400005D12089A843208101E0702030705846BB
:103B5000FFF7C2FA29E0208927EA0005BD4206D115
:103B6000B8F1010F05D120892843208101E07020A0
:103B700030705846FFF7B0FA17E0208927EA0005B1
:103B800035B1B8F1010F05D120892843208101E02A
:103B9000702030705846FFF79FFA06E05846FFF74E
:103BA0009BFA00256F20307000BF00BF28468FE7CA
:103BB0002DE9F04106460D460027FA48007820B16D
:103BC000102028700020BDE8F081FFF781FA074639
:103BD000F548046884B100684068F349086005202E
:103BE0002070268100206060F0A0E0603846FFF77A
:103BF00073FA0020287004E03846FFF76DFA72204F
:103C000028702046DFE730B501464A6808682AB9BF
:103C1000CC68606028B10025456002E0106000B10A
:103C200042608B6800255D6230BDF0B506460F46E8
:103C3000B4680020283460602780207A00F0DF001C
:103C4000207200206072207A283C88B93434A07831
:103C5000D74909780843D64908702078D549085CC7
:103C60006178084314F83419D24A5054012500E011
:103C700000253046FFF7C7FF2846F0BD2DE9F04785
:103C80000446894615464FF0000AC648007820B120
:103C90000F2028702046BDE8F0872078052803D043
:103CA000012028702046F6E7FFF712FA8246606886
:103CB00008B1012700E00027B9F1000F03D0B9F1E6
:103CC000010F3CD119E08FB9B8A0E060002020704E
:103CD000B5480068606000202081B3480460504609
:103CE000FFF7FAF900202870002605E05046FFF79C
:103CF000F3F949202870264628E0D4F8048005E02E
:103D000000214046FFF791FFD8F80080B8F1000F7E
:103D1000F6D1A6A0E06000202070A3480068606093
:103D200000202081A04804605046FFF7D5F9012FFC
:103D300001D1FFF722FC00202870002606E0504643
:103D4000FFF7CAF907202870264600BF00BF30469B
:103D5000A1E72DE9F04105460E461446002791489B
:103D6000007820B1112020700020BDE8F081FFF71D
:103D7000AFF907462878052806D03846FFF7ACF992
:103D8000012020700020F0E7E86830603068FFF71D
:103D9000D9FD80463846FFF79FF900202070404645
:103DA000E3E72DE9F04105460E46144600277D481D
:103DB000007818B112202070BDE8F081FFF788F973
:103DC00007462878052805D03846FFF785F90120F1
:103DD0002070F1E7EE603846FFF77EF90020207092
:103DE00000BFE9E7F0B51446059E734F3F6897F8AA
:103DF000307047F02007DFF8C0C1DCF800C08CF855
:103E000030700027DFF8B0C1DCF800C08CF83170EA
:103E1000694F3F68FE62684F3F6879620C828B741D
:103E2000654F3F688F6047680F6000274F60C8602C
:103E3000456805B1696041605F4F3F6897F834207D
:103E40005C4FBF5CDFF870C1DCF800C09CF835C087
:103E500027EA0C07DFF85CC10CF802706746BF5C0C
:103E60005FB9554F3F6897F836C0514F3F7827EA02
:103E70000C07DFF83CC18CF80070F0BD2DE9F04F65
:103E800089B005460F4691469A46129E0020029040
:103E90004448007828B102203070002009B0BDE805
:103EA000F08F4648007818B10D2030700020F5E7FB
:103EB0002878052803D0012030700020EEE709F0B3
:103EC000800BBBF1000F04D009F07F094FF001080F
:103ED00001E04FF00008FFF7FBF80290B9F1000F86
:103EE0004AD0B9F1010F78D0B9F1020F03D0B9F17E
:103EF000030F71D120E0288900EA0704BC420FD1EA
:103F0000B8F1010F02D12889A04328812A4800680E
:103F100004850298FFF7E0F8002030702046BDE7E6
:103F20004B463A4604A92846CDF800A0FFF75AFFB1
:103F30000298FFF7D1F878E0288900EA07047CB1FD
:103F4000B8F1010F02D12889A04328811A480068DE
:103F500004850298FFF7C0F80020307020469DE7E6
:103F60004B463A4604A92846CDF800A0FFF73AFF91
:103F70000298FFF7B1F858E0288927EA0004BC420C
:103F80001ED1B8F1010F02D12889204328810A48A7
:103F9000006804850298FFF79FF8002030702046E3
:103FA0007CE71AE075000020640000203F0000005C
:103FB000790000207A000020880000207600002090
:103FC0004B463A4604A92846CDF800A0FFF70AFF61
:103FD0000298FFF781F828E01FE0288927EA00040B
:103FE0007CB1B8F1010F02D1288920432881B14862
:103FF000006804850298FFF76FF8002030702046B3
:104000004CE74B463A4604A92846CDF800A0FFF7F6
:10401000E9FE0298FFF760F807E00298FFF75CF806
:1040200000246F203070204638E700BFFFF7A5FA64
:10403000FFF74EF802909F48006890F8310020B3D7
:104040009C48006890F83100039000209949096865
:1040500081F8310004A8FFF7D6FD002095490968D2
:1040600081F830000298FFF737F800240398012800
:1040700005D0022802D10E20307003E000BF0A20D4
:10408000307000BF00BF204608E78A480068048DF2
:10409000B8F1010F1ED1B9F1000F0ED0B9F1010F27
:1040A0000CD0B9F1020F03D0B9F1030F0AD100E02F
:1040B00000BF2889A04328810BE000BF2889204346
:1040C000288106E00298FFF707F86F203070002083
:1040D000E4E600BF0298FEF7FFFF002030702046A4
:1040E000DCE670B50025FEF7F3FF05467148006871
:1040F000048D2846FEF7F0FF204670BD2DE9FC5FD9
:104100000446894692461E460020009020780528E5
:1041100004D0012030700020BDE8FC9FFEF7D8FFDE
:104120000090BAF1000F03D0BAF1010F0AD104E0F8
:10413000208920EA090020810BE0208940EA09005B
:10414000208106E00098FEF7C7FF71203070002044
:10415000E2E700BF4FF0000B656855E0A87C40B374
:10416000012838D0022802D0032844D111E0208948
:10417000298A00EA0107288AB84209D13946284627
:10418000FFF753FD8046B8F1010F01D14FF0010B4D
:1041900038E02089298A00EA01074FB139462846CC
:1041A000FFF743FD8046B8F1010F01D14FF0010B3D
:1041B00028E0288A218920EA0107288AB84209D103
:1041C00039462846FFF731FD8046B8F1010F01D18D
:1041D0004FF0010B16E0288A218920EA01074FB130
:1041E00039462846FFF721FD8046B8F1010F01D17D
:1041F0004FF0010B06E00098FEF76EFF6F20307065
:10420000002089E700BF2D68002DA7D10098FEF798
:1042100063FFBBF1010F01D1FFF7AFF9FEF758FFC4
:104220000090208901900098FEF756FF0020307022
:10423000019871E72DE9F04104460D4600272078EA
:10424000052804D0012028700020BDE8F081FEF789
:104250003FFF074626893846FEF73EFF00202870BC
:104260003046F2E72DE9F04150211348FFF774F88A
:1042700000250EE0681C86B20F4800EB051400EB29
:104280000617002020706760AFF2E020E060681C35
:1042900085B2042DEED3084800EB051400202070F1
:1042A0006060AFF2F820E060034804490860BDE8B0
:1042B000F0810000880000209C1300206400002092
:1042C0002DE9F04106460D464FF0000830780228EF
:1042D00004D0012028700020BDE8F081FEF7F8FE30
:1042E00080467468E08A78B12169081D20610F68F2
:1042F000E08A401EE082A1682069884201D160689E
:1043000020610020287002E01F202870002740460E
:10431000FEF7E2FE3846DFE72DE9F04106460F469C
:104320004FF00008F748007810B10020BDE8F08198
:10433000FEF7CEFE8046F4480568006820B1F248DA
:1043400000684068F04908604046FEF7C5FE3DB38E
:10435000FEF7BEFE8046ED480468C4B10068006800
:10436000EA4908604046FEF7B7FE666006EB870044
:10437000A060E6602661A7820020E082022028700B
:10438000002028816C602846FFF7C4FA08E0DE4868
:1043900000686860DC4805604046FEF79DFE002529
:1043A0002846C3E72DE9F0470446894615464FF0F5
:1043B000000A2078022804D0012028702046BDE899
:1043C000F087D048007818B10F2028702046F6E713
:1043D000FEF77EFE8246A07A10B14FF0010801E0A0
:1043E0004FF00008B9F1000F03D0B9F1010F45D12A
:1043F0001FE0B8F1000F15D16668C448006830604E
:10440000C248066000202070BF480068606000203D
:104410002081BD4804605046FEF75EFE00202870F3
:10442000002705E05046FEF757FE49202870274632
:104430002BE005E00023042219462046FFF7F9F996
:10444000A07A0028F6D16668B04800683060AF48AE
:10445000066000202070AC48006860600020208169
:10446000A94804605046FEF737FEB8F1010F01D1AC
:10447000FFF783F800202870002706E05046FEF77B
:104480002BFE07202870274600BF00BF384696E75E
:1044900070B505460026FEF71BFE06466C68606890
:1044A000E060606820610020E0823046FEF714FE84
:1044B000002070BD2DE9F0470746884615464FF0AD
:1044C00000093878022804D0012028700020BDE8B7
:1044D000F0878C48007818B1022028700020F6E799
:1044E0008B48007818B10D2028700020EFE7FEF708
:1044F000EFFD81467C68E08A98B12169081D206142
:104500000E68E08A401EE082A1682069884201D1DD
:10451000606820614846FEF7DFFD002028703046C5
:10452000D5E77C48006890F8300040F004007949F5
:10453000096881F8300000207649096881F8310067
:1045400074480068C0F82C803846FFF7ABF948463D
:10455000FEF7C2FDFFF711F8FEF7BAFD81466D4880
:10456000006890F8310020B101280DD002280AD14E
:1045700005E068480068066A002028700DE0002603
:104580000E20287009E000BF394662480068FFF736
:104590003BF900260A20287000BF00BF00205D49BB
:1045A000096881F830005B49096881F83100594990
:1045B0000968C8615749096808624846FEF78CFDDA
:1045C000304684E72DE9F04104460F4615464FF08A
:1045D00000082078022804D0012028700020BDE8BF
:1045E000F081FEF775FD8046A07A20B300267FB1EA
:1045F000012F0CD107E00223042200212046FFF7FF
:1046000018F9701CC6B2A07A0028F4D109E000BFE6
:104610000223042200212046FFF70BF9701CC6B2CA
:1046200000BF00BF4046FEF757FDFEF7A6FF0E2075
:1046300028703046D3E74046FEF74EFD0020287034
:1046400000BFCCE72DE9F04105460E46002728784B
:10465000022802D00120BDE8F081FEF739FD0746AF
:10466000A87A60B10023042231462846FFF7E1F81A
:104670003846FEF731FDFEF780FF0020EBE76C685F
:10468000E08AA18A884204DB3846FEF725FD1E2019
:10469000E1E7E168081DE0600E60E08A401CE0820E
:1046A000D4E90210884201D16068E0603846FEF724
:1046B00013FD0020CFE72DE9F04105460E46002707
:1046C0002878022802D00120BDE8F081FEF700FD25
:1046D0000746A87A60B10023042231462846FFF736
:1046E000A8F83846FEF7F8FCFEF747FF0020EBE796
:1046F0006C68E08AA18A88420EDB3846FEF7ECFC43
:104700001E20E1E775000020600000209C000020D2
:10471000760000208800002061682069884201D16D
:10472000A06820612069001F206120690660E08A7E
:10473000401CE0823846FEF7CFFC0020C4E72DE99C
:10474000F04105460F4616464FF00008287802282B
:1047500002D00120BDE8F081FEF7BAFC8046A87ABD
:10476000E8B106F0010050B105E00023042239460B
:104770002846FFF75EF8A87A0028F6D105E0002366
:10478000042239462846FFF754F84046FEF7A4FCB9
:1047900006F0040008B9FEF7F0FE0020DAE76C68C6
:1047A000E08AA18A884204DB4046FEF795FC1E2081
:1047B000D0E706F0020058B161682069884201D153
:1047C000A06820612069001F20612069076009E05E
:1047D000E168081DE0600F60D4E90210884201D151
:1047E0006068E060E08A401CE0824046FEF774FCAE
:1047F0000020AFE72DE9F04705460C464FF0000AD0
:104800002878022802D00120BDE8F087FEF760FC7E
:104810008246A87A207405F10B0804F108090027E4
:1048200005E018F8010B09F8010B781CC7B2082F36
:10483000F7D36E68F08A18B130690068206001E033
:1048400000202060F08AA080B08AE0805046FEF709
:1048500043FC0020D8E72DE9F04160211048FEF725
:104860007BFD00240DE0601C86B204EB44000C4983
:1048700001EBC00506EB460001EBC0072F60601C92
:1048800084B2032CEFD304EB4400054901EBC005CF
:1048900000202860084603490860BDE8F081000058
:1048A000242000209C0000202DE9FF5F81468846DF
:1048B00000200090FEF70CFC0090F94850F828000A
:1048C00030B10098FEF708FC282004B0BDE8F09F46
:1048D000B9F1FF0F03D1F348006890F83290F04827
:1048E00050F8294024B90098FEF7F6FB2920ECE7A0
:1048F000012C04D10098FEF7EFFB4320E5E74FEAD7
:10490000E80708F0070003900120B84000F0FF0A14
:1049100001210398814001F0FF0B0020E04941F89C
:104920002900084640F8284014F8346FA078029017
:104930006078343C0190DC48815D01980140D1B140
:10494000D948805D01998843D74988550846805DDC
:1049500028B9D648007802998843D4490870D348CA
:10496000007840EA0A00D1490870CF48C05D40EAAB
:104970000B00CD49C855E569D5B105F10B00805D47
:104980000199884305F10B0188550846805D18B9E7
:10499000A87A02998843A872A87A40EA0A00A87205
:1049A00005F10B00C05D40EA0B0005F10B01C85595
:1049B00084F8328084F83470039884F8330084F8E3
:1049C00036A084F835B00098FEF786FBB84800782A
:1049D000012801D1FEF7D1FD002076E72DE9FE4F39
:1049E00006460F4690461C464FF00009FEF770FB46
:1049F0008146B048007828B14846FEF76DFB3C2060
:104A0000BDE8FE8FA64850F8240060BB0120A449F1
:104A100041F824004846FEF75FFB00234246394632
:104A20003046FEF7AEFB8246002000900190034620
:104A30000246514602902046FEF78EFF054635B9E4
:104A40009B48007801280CD1FEF797FD09E0FEF79E
:104A50003FFB81460020924941F824004846FEF77A
:104A60003BFB2846CCE74846FEF736FB2820C7E745
:104A700002F0010343B102F002032BB102E0491E30
:104A8000002308C00029FAD170472DE9F04F85B006
:104A900081468A4693461C46DDE90F78129D002028
:104AA0000390FEF715FB03908248007830B103981D
:104AB000FEF712FB3C2005B0BDE8F08F784850F8B7
:104AC000240088BB0120764941F824000398FEF7B2
:104AD00003FB2A4641463846FFF7CAFF2B465A4693
:104AE00051464846FEF74DFB04901198CDE90080F1
:104AF00002953A4620460E9B0499FEF72DFF064686
:104B000036B96B48007801280CD1FEF736FD09E074
:104B1000FEF7DEFA03900020614941F82400039873
:104B2000FEF7DAFA3046C6E7FFE70398FEF7D4FA55
:104B30002820C0E72DE9F041054600275D480078B0
:104B400010B14020BDE8F0813F2D01D13E20F9E7B2
:104B5000FEF7BEFA0746FF2D03D15248006890F8D1
:104B600032504F4850F8254024B93846FEF7B4FA81
:104B70004320E7E7012C04D13846FEF7ADFA3D208B
:104B8000E0E714F8340F4849085C617888432178DD
:104B9000454A505414F834091146085C30B994F869
:104BA000361042480078884340490870E06918B1DF
:104BB0002046E169FEF728FE666A16B13046FFF727
:104BC00022F80020E06284F8300084F831003A488E
:104BD0000078FF2804D238480078401C3649087015
:104BE0003846FEF779FAFEF70EFEFEF771FA074631
:104BF0003148007820B130480078401E2E490870B6
:104C00002046FEF7BBFA2D480078401E2B4908705D
:104C10000020234941F82500A06930B900206169CE
:104C2000886127496069086005E0D4E905014861A9
:104C3000D4E9051088612348006860612148046058
:104C400021A0E0643846FEF747FA194800780128A9
:104C500001D1FEF792FC002074E72DE9F0410446F3
:104C600000273F2C02D13E20BDE8F081FF2C0BD164
:104C7000FEF72EFA07460B48006890F83760384672
:104C8000FEF72AFA3046EFE7FEF722FA0746044815
:104C900050F82450D5B93846FEF71EFA4320E3E712
:104CA000EC170020880000207A0000207900002006
:104CB0008200002075000020760000208300002084
:104CC000940000208C0000203F000000012D04D142
:104CD0003846FEF701FA3D20C6E73F2085F8370049
:104CE0003846FEF7F9F90020BEE72DE9F047064601
:104CF0000F4614464FF00008D648007820B1112026
:104D000020700020BDE8F087FEF7E2F98046FF2E14
:104D100003D1D148006890F83260D04850F826504E
:104D200035B94046FEF7D8F9432020700020E9E766
:104D3000012D06D14046FEF7CFF943202070002018
:104D4000E0E7E86C38603868FEF7FCFD81464046D5
:104D5000FEF7C2F9002020704846D3E72DE9F04164
:104D600006460F4614464FF00008BA48007818B1BE
:104D700012202070BDE8F081FEF7AAF98046FF2ED0
:104D800003D1B548006890F83260B44850F8265016
:104D90002DB94046FEF7A0F943202070EAE7012D27
:104DA00005D14046FEF798F943202070E2E7EF6412
:104DB0004046FEF791F90020207000BFDAE770B599
:104DC00005460026FEF784F90646A44850F825401B
:104DD00024B93046FEF780F9462070BD012C04D17D
:104DE0003046FEF779F94320F7E794F8300000F0F9
:104DF000080060B314F8300F00F0F700207014F8CA
:104E00003009F8B9E06AC8B93434A078944909780F
:104E100008439349087020789249085C61780843F8
:104E200014F834198F4A50543046FEF755F98E481D
:104E30000078012809D1FEF7A0FB06E03046FEF716
:104E40004BF902E03046FEF747F90020C5E730464F
:104E5000FEF742F94420C0E72DE9F04707460D462A
:104E60004FF0000A002028606860FEF731F98246A2
:104E7000FF2F03D17848006890F83270774850F8D7
:104E800027402CB95046FEF727F94320BDE8F087AC
:104E9000012C04D15046FEF71FF94320F6E7207C91
:104EA00000F0010020B95046FEF716F94520EDE765
:104EB0000026D4F80C90D4F808805046FEF70CF980
:104EC00000E0761C58F8041B0029FAD0B0002860D6
:104ED000A9EB0600800068600020D7E72DE9F041CB
:104EE00005464FF00008FEF7F3F88046FF2D05D188
:104EF0005948006890F83250012608E0564800688A
:104F000090F83200A84201D1012600E00026534863
:104F100050F825402CB94046FEF7DEF84820BDE8A1
:104F2000F081012C04D14046FEF7D6F84320F6E785
:104F300094F834704B48C05D94F835108843494963
:104F4000C8550846C05D30B994F83610444800781A
:104F500088434349087094F8300040F0080084F812
:104F600030004046FEF7B8F8012E01D1FEF705FBF0
:104F70000020D4E72DE9F04105460E460027FEF754
:104F8000A7F80746FF2D03D13348006890F8325048
:104F9000324850F825402CB93846FEF79DF82920B4
:104FA000BDE8F081012C04D13846FEF795F8432086
:104FB000F6E7542221463046FEF7BAFC3846FEF7A3
:104FC0008BF80020ECE72DE9F04704460E46174623
:104FD0004FF00009FEF77CF88146FF2C02D11E48F5
:104FE000056802E01D4850F8245005F1500050F8C3
:104FF00026804846FEF770F8002038704046BDE82D
:10500000F0872DE9F04704460E46174698464FF0C4
:105010000009FEF75DF88146FF2C02D10E480568B5
:1050200002E00E4850F8245005F1500040F8267078
:105030004846FEF751F8002088F80000BDE8F087E8
:1050400010B505480068FEF796F8FF20FFF772FDDF
:1050500010BD00007500002088000020EC17002023
:10506000790000207A0000208200002070B50546FB
:1050700000266348007800B170BD6248007800B136
:10508000FAE71DB3FEF724F806465F48006890F87B
:1050900034405E48005D5C49096891F835108843EA
:1050A0005A4908550846005D40B95748006890F8CD
:1050B00036105748007888435549087052480068B0
:1050C000C5623046FEF708F8FEF757FA00BFD3E78F
:1050D0002DE9F04105460E4617461C464848007823
:1050E00010B15520BDE8F0814648007808B1322063
:1050F000F8E74FF47A7060434FF47A71B0FBF1F146
:105100004FF461606843C6EB061200EB820038443E
:1051100000EB4002C2EBC01001EBC0084046FFF7B5
:10512000A5FF0020DEE770B5054600263F2D01D320
:105130002A2070BDFDF7CCFF0646364850F82540C2
:1051400024B93046FDF7C8FF4320F2E7012C04D113
:105150003046FDF7C1FF4320EBE7E06A20B9304657
:10516000FDF7BAFF5020E4E70020E06294F8300039
:1051700000F0370040B114F8300F20F037002070F5
:1051800001206070303C02E0002084F8310094F887
:10519000300000F00800A8B93434A0781C49097820
:1051A00008431B49087020781849085C6178084357
:1051B00014F83419154A50543046FDF78DFFFEF7A8
:1051C000DCF902E03046FDF787FF0020B1E770B55B
:1051D0000025FDF77DFF05460F4804682846FDF7CA
:1051E0007BFF204670BD70B504460025FDF770FFBB
:1051F0000546094804602846FDF76EFF70BD0000B3
:105200007500002076000020880000207A00002031
:1052100079000020EC170020A000002030B51648CF
:1052200000684FF47A72B0FBF2F1B1F1807F00D3E5
:105230001DE021F07F40401E4FF0E02250615017EA
:105240000F22002807DA13071D0E0C4B00F00F0485
:10525000241F1D5503E013071C0E094B1C5400BFEF
:1052600000204FF0E02290610720106100BF30BDA8
:1052700000B5FFF7D3FF00BD0000002018ED00E0EF
:1052800000E400E001460020C1F80802C1F8040271
:10529000C1F8000270470146D1F80402421CD01741
:1052A00002EBD0504012A2EB4020D1F800329842DD
:1052B00006D1D1F80802B0F5007F01D10120704776
:1052C0000020FCE730B504460D462046FFF7E3FF1B
:1052D00010B14FF0FF3030BDD4F804022554D4F89B
:1052E0000412481CC11700EBD1514912A0EB412117
:1052F000C4F80412D4F80802401CC4F808020020C4
:10530000E9E7014601F5007005C8904204D1D1F8E3
:10531000080208B9012070470020FCE710B50346D9
:105320000C461846FFF7EDFF10B14FF0FF3010BDEF
:10533000D3F80002185C2070D3F80012481CC11783
:1053400000EBD1514912A0EB4121C3F80012D3F870
:105350000802401EC3F808020020E8E70146D1F821
:105360000802704701460020C1F80802C1F8000297
:10537000C1F804027047000070B586B0044601A869
:10538000FBF7B3FE0198B0FBF4F1B1F1807F00D3DD
:105390001DE021F07F40401E4FF0E0225061501789
:1053A0000F22002807DA13071E0E314B00F00F05FD
:1053B0002D1F5E5503E013071D0E2E4B1D5400BF1D
:1053C00000204FF0E02290610720106100BF2A48C2
:1053D0000460002006B070BD2848006800217047B6
:1053E00026480068401C254908607047F0B5034610
:1053F0000C46FFF7F1FF024600BFFFF7EDFF002567
:10540000064608462946B51A60EB01001A490968A4
:105410000027A3FB016C04FB01C103FB0711AD1BBB
:105420008841EAD3F0BDF0B503460C46FFF7D4FF40
:10543000024600BFFFF7D0FF002506460846294672
:10544000B51A60EB01000C4909684FF47A76B1FB9C
:10545000F6F10026A1FB037C06FB03C601FB0461F9
:10546000ED1B8841E6D3F0BD03480068704700009B
:1054700018ED00E000E400E0A8000020A4000020F7
:1054800008B54FF4C060FCF72DFB25208DF8000017
:1054900001208DF8010000208DF8020001208DF818
:1054A00003006846FCF723FB08BD10B54FF480717C
:1054B000FB48FBF778FC0020FA490880FA4908808D
:1054C000FA490880002240F22661F948FBF7B9FF4B
:1054D00010BD10B50021F648FCF714F802E00020DA
:1054E000F44908804021F248FCF77AF80028F6D009
:1054F0004FF48071EA48FBF758FC10BD00B587B047
:1055000001210520FBF75EFE01218803FBF75AFE0F
:105510004FF40070ADF8000018208DF80300032050
:105520008DF802006946DE48FBF790FB4FF480607F
:10553000ADF8000004208DF8030003208DF8020070
:105540006946D748FBF782FB4FF48070ADF8000046
:1055500003208DF8020010208DF803006946D04822
:10556000FBF774FB002240F22661D148FBF769FF8C
:10557000012240F22551CE48FBF763FF4FF4E130A2
:1055800003900020ADF81000ADF81200ADF8140043
:10559000ADF818000C20ADF8160003A9C448FBF7BD
:1055A000B8FE0020ADF80400ADF806004FF400701E
:1055B000ADF808000020ADF80A0001A8FBF72FFFA6
:1055C00001A9BB48FBF71AFF0121B948FBF72DFFE2
:1055D000FFF756FFFFF769FFFFF77BFF002007B0DB
:1055E00000BD10B5B3480088012800D010BDAF48F9
:1055F0000088AD490988884217DB00BF4021AC48CC
:10560000FBF7EEFF0028F9D04FF48071A448FBF7B8
:10561000CCFB0020A7490880A2490880002240F264
:105620002661A348FBF70DFFE0E7A0480088401083
:10563000A149096831F810409C48007800F0010049
:1056400008B1241200E0E4B2E0B29949091D0880D3
:1056500096480088401C9549088000BFC6E710B5F1
:105660009348FBF753FF04469248008800B110BDF1
:105670008C480088402803DD00208A490880F6E72E
:105680008848007800F0010018B14FF6FF7000EA7A
:1056900004248448008806287ED2DFE800F0031046
:1056A000293F4C554D2C09D14D208449096808806B
:1056B0007C480088401C7B490880A0E000BFB4F50E
:1056C0008A4F0DD17D480068008840F48A407B49AC
:1056D0000968088073480088401C7249088006E009
:1056E0004D20B0EB242F02D000206E49088086E0C8
:1056F000B12C09D1B12071490968488069480088F6
:10570000401C6849088008E00020664908804D2C4C
:1057100003D108460088401C088070E06748006894
:10572000408820436549096848805E480088401CDD
:105730005C49088063E061480068848059480088BB
:10574000401C584908805AE05C4800688088204323
:105750005A490968888053480088401C514908808C
:1057600056480068808856490880544800688088F8
:105770005449088052480088402803DC504800887B
:10578000022802DA0020474908804D480088801C22
:105790004B490880084600E003E00088801C088030
:1057A0002DE04048007800F0010078B13D480088C5
:1057B00040104249096831F81000204339490988EE
:1057C00049103E4A126822F8110006E03548008868
:1057D00040103A49096821F8104032480088401CBE
:1057E0003049088036480088401E35490880084600
:1057F000008818B980202F49088038E700BF00BF13
:1058000000BF34E710B540F225512948FBF7FEFEF2
:1058100030B1FFF724FF40F225512548FBF720FF68
:1058200040F226612248FBF7F1FE30B1FFF7D9FEC6
:1058300040F226611E48FBF713FF10BD2DE9F0432F
:105840008BB005460E46904628221FA101A800F005
:105850004DFF34460027B94645B9302004F8010B06
:105860000020207030460BB0BDE8F083002D03DA35
:105870002D2004F8010B6D4209E095FBF8F008FBC0
:10588000105001A9085C04F8010B95FBF8F5002DF8
:10589000F3D10020207030782D2829D1701C28E009
:1058A000000801403400002036000020B000002035
:1058B00000380140AC0000202C000020280000200F
:1058C000AE000020B200002030313233343536379C
:1058D00038394142434445464748494A4B4C4D4E6E
:1058E0004F505152535455565758595A00000000C2
:1058F00030460746641E07E097F80090207838701D
:1059000084F800907F1C641EA742F5D33046AAE7B6
:105910000FB4F0B585B00546BA4F0CA80090012D24
:1059200000D100BF4021B748FBF767FE73E00B983A
:1059300000785C281CD10B98401C0B9000786E28D6
:1059400009D072280FD10D213846FBF7DBFD0B98EB
:10595000401C0B900BE00A213846FBF7D3FD0B9857
:10596000401C0B9003E00B98401C0B9000BF52E0D2
:105970000B980078252840D10B98401C0B9000789C
:10598000642818D0732833D1009810C800900BE019
:1059900021783846FBF7B6FD00BF40213846FBF7BB
:1059A0001FFE0028F9D0641C20780028F0D10B9845
:1059B000401C0B9020E0009840C800900A2201A9EA
:1059C0003046FFF73BFF01AC0BE021783846FBF790
:1059D00099FD00BF40213846FBF702FE0028F9D0B0
:1059E000641C20780028F0D10B98401C0B9003E039
:1059F0000B98401C0B9000BF0DE00B9810F8011B9A
:105A00000B903846FBF77EFD00BF40213846FBF780
:105A1000E7FD0028F9D00B980078002887D105B061
:105A2000F0BC5DF814FB70B504460E464021754885
:105A3000FBF7E3FD00250CE014F8011B7148FBF7B0
:105A400061FD00BF40216F48FBF7CAFD0028F9D077
:105A50006D1CB542F0D3284670BD2DE9F84F814644
:105A60000E4614460027FFF7B7FC80460025FFF7D7
:105A7000FBFC824604FB0AF46348FFF773FC34E046
:105A800069466148FFF74AFC80B99DF80020284626
:105A90006D1C09F8002000200090B54202D130466C
:105AA000BDE8F88FFFF798FC07461EE065B9FFF7E1
:105AB00093FCB0EB080261F10001121B71F10001CF
:105AC00013D394B10020EBE7FFF786FCC31B61F111
:105AD00000014FF47A70BAFBF0F04000181A71F12F
